:1000000052C061C061C05FC05EC05DC05CC05BC00B
:100010005AC059C058C057C056C055C054C053C02C
:1000200052C051C050C03F3F3F3F3F3F3F3F3F3F27
:100030003F3F3F3F3F3F3F3F3F3F3F71313F3F3FAC
:100040007A736177323F3F6378646534333F3F2092
:1000500076667472353F3F6E62686779363F3F3F20
:100060006D6A7537383F3F3F6B696F30393F3F3FAF
:100070003F6C3F703F3F3F3F3F3F3F3F3F3F3F3F32
:100080003F3F3F3F3F3F3F3F3F3F3F3F3F3F3F3F80
:100090003F3F3F3F3F3F3F3F3F3F3F3F3F3F3F3F70
:1000A0003F3F3F3F3F3F11241FBECFE5D4E0DEBFBF
:1000B000CDBF10E0A0E6B0E001C01D92A836B107A8
:1000C000E1F7B6D0C1C09CCF1F920F920FB60F922E
:1000D00011242F933F938F939F9382B390E48927AA
:1000E00082BB83994EC080916100882341F484993A
:1000F00027C081E0809361001092650028C0309194
:100100006500383098F4849B0DC02091630081E035
:1001100090E0032E02C0880F991F0A94E2F7282B63
:10012000209363003F5F309365002BC0383021F48B
:1001300089E08093650025C01092610010926500EF
:1001400080916300803F31F481E0809362001092DF
:10015000630017C08091630090916200823149F47E
:10016000992321F481E0809360000BC0109260001D
:1001700002C0992319F01092620003C081E08093BD
:1001800066009F918F913F912F910F900FBE0F901E
:100190001F901895E82FF0E0EA5DFF4F9491809151
:1001A0006000882311F4892F0895892F80520895C3
:1001B000809166008823E1F31092660080916300CD
:1001C00008951092610010926300109265008B9860
:1001D000839A85B7886085BF85B78B7F85BF8BB7CE
:1001E00080688BBF7894089589B990BD86E880BDFA
:1001F00088E18AB908955D9BFECF8CB908955F9B15
:10020000FECF8CB10895982F92959F709A3010F47C
:10021000905D01C0995C5D9BFECF9CB98F708A3068
:1002200010F4805D01C0895C5D9BFECF8CB90895A0
:1002300088E090E0D9DFC5DF82E7DDDF8E9A82E5D6
:0C024000DADFB6DFA7DFFCCFF894FFCFB9
:00000001FF
